:020000040800F2
:100000000000022099060008950600080537000840
:1000100095060008950600089506000800000000F7
:10002000000000000000000000000000950600082D
:1000300095060008000000009506000889360008B3
:100040009506000895060008950600089506000824
:100050009506000895060008950600089506000814
:1000600095060008950600089506000891320008DC
:100070009D32000895060008A9320008B532000834
:10008000B9DE0008C127000895060008950600089B
:1000900095060008950600089506000895060008D4
:1000A00095060008950600089506000895060008C4
:1000B000E5D20008F1D20008FDD20008F5270008BB
:1000C00095060008012800089506000855CB000891
:1000D00061CB0008EDDC000819DD00084DDD0008EB
:1000E0009506000895060008000000009506000827
:1000F0009506000895060008950600089506000874
:10010000950600089506000809D300086DCB000885
:1001100081DD0008B5DD0008950600089506000899
:10012000950600089506000891CB0008C5CB00088D
:10013000EDDE000895060008950600089506000803
:1001400000000000000000000000000000000000AF
:10015000950600089506000895060008E9DD0008E8
:100160000D2800089506000899360008BD360008DD
:1001700095060008E1360008950600089506000877
:1001800095060008950600081DDE000851DE0008EF
:1001900079CB000885CB0008950600089506000875
:1001A00095060008950600089506000895060008C3
:1001B000B12F00089506000895060008950600086E
:1001C0009506000895060008452100085121000801
:1001D000950600085D2100089506000895060008B0
:1001E0009506000895060008950600089506000883
:1001F0009506000895060008950600089506000873
:100200009506000895060008950600089506000862
:100210009506000895060008950600089506000852
:1002200095060008950600089506000800000000E5
:1002300095060008950600080000000095060008D5
:100240009506000895060008950600089506000822
:100250009506000895060008950600089506000812
:100260009506000895060008950600089506000802
:10027000950600089506000885DE000800000000CD
:100280009506000895060008950600080000000085
:080290000000000095060008C3
:1002A00010B5054C237833B9044B13B10448AFF3B0
:1002B00000800123237010BD780700240000000097
:1002C0009443010808B5034B1BB103490348AFF33E
:1002D000008008BD000000007C0700249443010852
:1002E000034613F8012B002AFBD1181A0138704776
:1002F00001F0FF01102A2BDB10F0070F08D010F8D7
:10030000013B013A8B422DD010F0070F42B3F6D1DA
:10031000F0B441EA012141EA014122F007047FF0F3
:1003200000070023F0E80256083C85EA010586EA4A
:10033000010685FA47F5A3FA87F586FA47F6A5FA86
:1003400087F68EB9EED1F0BC01F0FF0102F0070292
:1003500032B110F8013B013A83EA010313B1F8D13D
:100360000020704701387047002D06BF354603381E
:10037000073815F0010F07D1013015F4807F02BF57
:10038000013015F4C03F0130F0BC0138704700BFA8
:1003900053B94AB9002908BF00281CBF4FF0FF31EC
:1003A0004FF0FF3000F074B9ADF1080C6DE904CEE8
:1003B00000F006F8DDF804E0DDE9022304B0704740
:1003C0002DE9F047089D04468E46002B4DD18A4208
:1003D000944669D9B2FA82F252B101FA02F3C2F13B
:1003E000200120FA01F10CFA02FC41EA030E9440CC
:1003F0004FEA1C48210CBEFBF8F61FFA8CF708FBED
:1004000016E341EA034306FB07F199420AD91CEBC4
:10041000030306F1FF3080F01F81994240F21C81F6
:10042000023E63445B1AA4B2B3FBF8F008FB10333E
:1004300044EA034400FB07F7A7420AD91CEB040473
:1004400000F1FF3380F00A81A74240F20781644443
:10045000023840EA0640E41B00261DB1D4400023C8
:10046000C5E900433146BDE8F0878B4209D9002D2C
:1004700000F0EF800026C5E9000130463146BDE8B6
:10048000F087B3FA83F6002E4AD18B4202D3824220
:1004900000F2F980841A61EB030301209E46002DCF
:1004A000E0D0C5E9004EDDE702B9FFDEB2FA82F224
:1004B000002A40F09280A1EB0C014FEA1C471FFA82
:1004C0008CFE0126200CB1FBF7F307FB131140EA69
:1004D00001410EFB03F0884208D91CEB010103F136
:1004E000FF3802D2884200F2CB804346091AA4B2F8
:1004F000B1FBF7F007FB101144EA01440EFB00FECC
:10050000A64508D91CEB040400F1FF3102D2A64530
:1005100000F2BB800846A4EB0E0440EA03409CE7CF
:10052000C6F12007B34022FA07FC4CEA030C20FA7C
:1005300007F401FA06F31C43F9404FEA1C4900FA9C
:1005400006F3B1FBF9F8200C1FFA8CFE09FB181119
:1005500040EA014108FB0EF0884202FA06F20BD98C
:100560001CEB010108F1FF3A80F08880884240F2DC
:100570008580A8F102086144091AA4B2B1FBF9F020
:1005800009FB101144EA014100FB0EFE8E4508D91B
:100590001CEB010100F1FF346CD28E456AD90238A0
:1005A000614440EA0840A0FB0294A1EB0E01A14285
:1005B000C846A64656D353D05DB1B3EB080261EBF3
:1005C0000E0101FA07F722FA06F3F1401F43C5E9CD
:1005D000007100263146BDE8F087C2F12003D84003
:1005E0000CFA02FC21FA03F3914001434FEA1C4745
:1005F0001FFA8CFEB3FBF7F007FB10360B0C43EA37
:10060000064300FB0EF69E4204FA02F408D91CEBE6
:10061000030300F1FF382FD29E422DD902386344E4
:100620009B1B89B2B3FBF7F607FB163341EA034184
:1006300006FB0EF38B4208D91CEB010106F1FF38D3
:1006400016D28B4214D9023E6144C91A46EA0046CA
:1006500038E72E46284605E70646E3E61846F8E65C
:100660004B45A9D2B9EB020864EB0C0E0138A3E7A5
:100670004646EAE7204694E74046D1E7D0467BE786
:10068000023B614432E7304609E76444023842E7FE
:10069000704700BFFEE700BF0B480C4A904203D0F2
:1006A000121A0B4910F034FC0A480B4A904203D04E
:1006B000121A002110F03AFC03F07AFA10F0F4FB61
:1006C00000F0CCF8FEE700BF00000024740700240F
:1006D000C843010878070024F05E0024704700BF7B
:1006E000704700BF002A00F0A1802DE9F04F0746B7
:1006F00083B08846154600244D4E0AE0DBF8001012
:10070000002957D0C9B24B4801F006FF0134A54279
:1007100070D03868D8F800107A6800EB8400D8F8F8
:10072000043001EB8401D0F800C002EB840203EB3B
:1007300084034148C1F800C012681A6010F07EFBC3
:1007400030700028E2D0DFF80091DFF800C1D9F85E
:100750000010DFF8FCB04B1C5CF821205842B2FAC4
:1007600082F203F0070300F007004FEA521258BF6D
:1007700043424CF82120DA07C9F80030BED4DBF838
:100780000030002B0CBF01230023CBF8003011D127
:10079000DFF8C0A0DAF800307BB30133DBF80010DB
:1007A0005A4203F0070302F0070258BF5342CAF847
:1007B0000030A7E7214BDFF89CA01B68DAF8001097
:1007C0001F4843FA01F101F0010101F0A5FED9F83B
:1007D0000030DBF80010DB0794D40029DAD1194887
:1007E000019101F099FE0199154801F095FEDBF8A1
:1007F000001087E703B0BDE8F08F0121114801F038
:100800008BFEDFF854C00D48DCF800100268B1FA26
:1008100081F1DAF8003001324909CCF80010514278
:10082000D2B2C9B258BF4A420260B6E7704700BFB1
:10083000E80700249C070024100800242408002452
:10084000A0070024EC07002420080024F00700245F
:100850009807002494070024A407002470B5002101
:1008600082B02048012500F079F91E4800F09AF87E
:1008700000208DED010A01F09DFB64201A4C02F06E
:10088000B1FFDDED010A9FED190A194810F0C4FA15
:10089000284600F051F8034665802046238001F089
:1008A0005FFD144E022000F047F803463046124C1C
:1008B0003380758001F054FD032000F03DF80346BD
:1008C00065802046238001F04BFD0421054800F09F
:1008D0006DF80321034800F049F80849014800F089
:1008E00041F8FEE7A8070024A007002400007A448E
:1008F000100800249C070024EC070024E5060008EB
:1009000008B508480023084A0849036043610362A8
:10091000C36310F0ADFA044A05490648BDE8084033
:1009200010F0A6BAA807002400000024DD06000885
:10093000E106000810080024202882B009D8084BDE
:1009400003EB400213F81030507843EA002002B065
:10095000704701230C2043EA002002B0704700BF1B
:100960007C3D0108143001F069BA00BF38B500F1D0
:10097000140504462DED028B284601F01BFA28468B
:1009800001F014FA2846B0EE408A01F0FDF9D0EDEE
:10099000007AF8EE677A88EE277ABDEC028B84ED58
:1009A0000E7A38BD143001F001BA00BF38B500F13D
:1009B000140504462DED028B284601F0E9F928467E
:1009C00001F0F4F92846B0EE408A01F0DDF9D0EDEF
:1009D000007AF8EE677A88EE277ABDEC028B84ED18
:1009E0000E7A38BD10B540F203338EB000244FF6B6
:1009F0000B7240F20341ADF8083009A80123ADF8AD
:100A00001020ADF824202246ADF80C100094029975
:100A100007940C94CDE90544CDE90A4401F0A4FB08
:100A200004A8012322460399009401F09DFB09A824
:100A300001F080FC10B901200EB010BD04A801F037
:100A400079FCA0420CBF022020460EB010BD00BFB2
:100A50002DE9F04103239AB0012700240646CDE991
:100A600014373B4BCDE9104340F20453CDE9164710
:100A7000ADF84830FFF7B6FFB842054625D002284A
:100A800045D040F60132334B0DF12C081894ADF8E7
:100A90002C200B981997CDF84A3000F0E3F810A9F4
:100AA00006F13C0002F080FC302003224FF07E5320
:100AB00041460D930E93CDE90B02F26B06F1140043
:100AC00001F02AF91AB0BDE8F0811023214A06A9E5
:100AD00006908DF828300DF12C081F4BCDF84A20D8
:100AE00007930294CDE91804CDE9080402A801F0A7
:100AF00093FE0823029A03A94046ADF80C508DF8E6
:100B00000E40049505930B9400F0ECF8C7E7002025
:100B10000121104B0DF12C083A460094CDF84A30D3
:100B20004FF60B730C94ADF82C302346CDE9180129
:100B300040F601314046ADF818100699CDE90D4454
:100B400001F012FB2146404601F000FCA7E700BF80
:100B500004020404040604030704010B2DE9F04712
:100B600004462DED028B82B000294DD0012140F2C8
:100B7000011200230091ADF804208DF80630364AAA
:100B80000127364B04F10409354904F12908626054
:100B900040F20272A36040F60663E16004F1250AA8
:100BA000A4F82520A4F82930278284F8277084F837
:100BB0002B7002F0B3FF054602F016FE69460646AA
:100BC00050BB4DB304F130008DF8067002F02EFFDB
:100BD000072D3CD104F114052046FFF739FF2846C4
:100BE00001F0E4F82846B0EE408A01F0CDF8D0EDEF
:100BF000007AF8EE677A88EE277A84ED0E7A02B0F2
:100C0000BDEC028BBDE8F08740F2011300918DF836
:100C10000610ADF80430B2E704F1300002F006FF30
:100C2000072D11D04946204602F03EF80EB9002D9E
:100C3000D0D1504601F094FB404601F091FB04F105
:100C4000120000F079F9C5E7002EF2D1C2E749465B
:100C5000204602F029F8BDE7050805090507050645
:100C6000050A060610B584B003460124ADF8040059
:100C700003A8ADF80C30ADF80E4001F071FB214631
:100C800003A801F049FC204602F0ACFD002103A8B6
:100C900001F042FC204602F0A5FD214603A801F028
:100CA0003BFC04B010BD00BF10B5C2F3002384B0FC
:100CB0000C46017C8DF80D2043EA4402FA240223FD
:100CC0008DF80C2003AA009401F03CFE18B1012419
:100CD000204604B010BD04460A2002F083FD2046E1
:100CE00004B010BD034670B543F8042B044684B02D
:100CF00007C983E80700A37983B91A210B461E228E
:100D0000FA2523742046ADF80C20022303AA00958F
:100D100001F018FE28B1012004B070BD1B210B4664
:100D2000EDE70A2002F05EFD4FF4B8520095022371
:100D3000ADF80C20204603AA217C01F003FE002818
:100D4000E9D10A2002F04EFD41F202720095022321
:100D5000ADF80C20204603AA217C01F0F3FD002809
:100D6000D9D10A2002F03EFD042200950223ADF8FD
:100D70000C20204603AA217C01F0E4FD0028CAD102
:100D80000A2002F02FFD062200950223ADF80C2068
:100D9000204603AA217C01F0D5FD0028BBD10A2002
:100DA00002F020FD41F2082200950223ADF80C204C
:100DB000204603AA217C01F0C5FD0028ABD10A2002
:100DC000064602F00FFD0095022303AA217C20466F
:100DD000ADF80C6001F0B6FD00289CD1304602F061
:100DE00001FD009522790C232046002A8DF80C3055
:100DF00003AA4FF0020314BF622142218DF80D10A7
:100E0000217C01F09FFD002885D1304602F0EAFCEC
:100E10002279D4E902310B43DBB20AB943F0400333
:100E200062790AB143F020030E22FA258DF80D30C5
:100E30002046009502238DF80C2003AA217C01F0A6
:100E400081FD00287FF467AF0A2002F0CBFC10225E
:100E500000950223ADF80C20204603AA217C01F066
:100E600071FD00287FF457AF0A2002F0BBFC12216D
:100E700000950223ADF80C1003AA217C204601F056
:100E800061FD00287FF447AF0A2002F0ABFC01228D
:100E900009212046FFF708FF003818BF01203BE773
:100EA000F0B5102387B0234C01220025012600272E
:100EB00002A920460195CDE902234FF48052CDE9E5
:100EC000046709F0DBFA642003F066FC02A94FF422
:100ED00080522046CDE9046702261027CDE902673B
:100EE00009F0CCFA0322102302A92046CDE90223FF
:100EF00000230422CDE904234FF4805209F0BEFA06
:100F000040F23223042202A9019310232046CDE9A6
:100F10000223019A012305924FF48052049309F0B1
:100F2000ADFA40F60601204609F0C8FA284607B097
:100F3000F0BD00BF300800241C4B00221C494FF0BC
:100F4000400C30B5054689B00220596007219A60EF
:100F50001A620124DA620A224FF4006EDC60069203
:100F60002022CDE9000104200821CDE9020103205F
:100F70001021CDE9040108206946C3E904024FF4B9
:100F8000C072181DC3E906C24FF48052C3E909E2DA
:100F900009F04AFA38B92846FFF782FF003818BF2F
:100FA000012009B030BD204609B030BD2C08002416
:100FB00040410052614A0021D0B513688EB00A91B9
:100FC000002B40F0B9805E4B01214FF683700C245A
:100FD00011600221D3F8D4200026032742F4805266
:100FE000C3F8D420D3F8D42002F480520092009A9F
:100FF000D3F8E02042F01002C3F8E020D3F8E0205C
:1010000002F010020192019AD3F8E02042F040026F
:10101000C3F8E020D3F8E02002F040020292029AE6
:10102000D3F8E02042F00802C3F8E020D3F8E02033
:1010300002F008020392039AD3F8E02042F480728F
:10104000C3F8E020D3F8E02002F480720492049AFE
:10105000D3F8E02042F08002C3F8E020D3F8E0208B
:1010600002F080020592059AD3F8E02042F02002B7
:10107000C3F8E020D3F8E02002F020020692069A9E
:10108000D3F8E02042F00402C3F8E020D3F8E030C7
:101090000C9403F0040307930323079A0B93CDE901
:1010A000080108A9274804F01DFC48F23712022362
:1010B00008A925480C94CDE90823CDE90A6704F076
:1010C00011FC4CF20372022308A920480C94CDE9CC
:1010D0000823CDE90A6704F005FC40F2FF62022311
:1010E00008A91B480C94CDE90823CDE90A6704F050
:1010F000F9FB4FF60C72022308A916480C94CDE9AF
:101100000823CDE90A6704F0EDFB4FF63F02022306
:1011100008A911480C94CDE90823CDE90A6704F029
:10112000E1FB2022022308A90A480C94CDE90A67B2
:10113000CDE9082304F0D6FB0EB0D0BD280800246A
:10114000004402580010025800180258000C0258BF
:1011500000200258001C0258001402582DE9F04FDC
:10116000DFF8108406460D46144608F118002DEDF0
:10117000028B89B000AF02F00FFAD8F8183073B3C1
:10118000D8F81C30D8F80490002B43690BBF4FF0FF
:10119000080A4FF0100A4FF0020B4FF0040BB9F1A0
:1011A000000F2AD0A200EA46012B02F1070222F02A
:1011B0000702ADEB020D6846ADEB020D694600F08B
:1011C0003F81022B00F0D680002B6FD02246C8470B
:1011D000D5462437BD46BDEC028BBDE8F08FD8F86C
:1011E0001C30002BF5D0D8F804904FF0080A4FF0CF
:1011F000020B4369B9F1000FD4D1FB61D8F800307C
:10120000BB61002BE5D0D54802F038FA6B46BBF144
:10121000020F786108EE103AFB6900F083816A469C
:101220005146A2EBC40295466200EA46B2FBFBF2CD
:10123000AAEBC40085460AEB8200EE46F861ADEBEE
:10124000010DF8690EEB820CC7F810C0EC46ADEB4F
:10125000010D00EB8201CCF80400CCF8081001EB82
:1012600082013869E946CCF80C1000EB8201CCF819
:1012700000A001EB8202C9E900E0C9E90212012BDA
:1012800000F06483022B00F06C82002B00F0808160
:10129000620849466046BB69984718EE103A243701
:1012A0009D46BD46BDEC028BBDE8F08F002C8DD075
:1012B0001A46D8ED0C6A9FEDB27A8446331D36F992
:1012C00022E00CF1080C07EE90EA33F922E002323A
:1012D000F8EEE77A944267EE877A67EEA67A4CEDED
:1012E000027A07EE90EAF8EEE77A67EE877A67EE21
:1012F000A67A4CED017AE2D8F9612246C847984EA9
:10130000D8ED0D6A0020F9692B1D9FED9E7A9FEDA7
:101310009E6ADFED9E5A22E0F4EEC67AF1EE10FAF4
:10132000C0F2C88447F6FE72D1ED017A45F820205C
:1013300066EEA77AF4EEC77AF1EE10FA40F2F0808A
:10134000F4EEC67AF1EE10FAC0F2D58447F6FE72DA
:1013500043F820200230083184427FF639AFD1EDC6
:10136000007A66EEA77AF4EEC77AF1EE10FAD3D8D7
:101370003246D9E7002C3FF429AFD8ED0C6A8446F9
:101380009FED787A0022331D8E4656F822100CF11C
:10139000080C07EE901A53F822100232F8EEE77AA2
:1013A000944267EE877A67EEA67A4CED027A07EEF2
:1013B000901AF8EEE77A67EE877A67EEA67A4CED38
:1013C000017AE2D871462246C7F81CE0C847664E4B
:1013D000D8ED0D6A0020F9692B1D9FED6A7A9FED0B
:1013E0006A6ADFF894C120E0F4EEC67AF1EE10FAF2
:1013F000C0F279843246D1ED017A45F8202066EEBC
:10140000A77AF4EEC77AF1EE10FA40F28780F4EE94
:10141000C67AF1EE10FAC0F25E84324643F820201C
:101420000230083184427FF6D3AED1ED007A66EE09
:10143000A77AF4EEC77AF1EE10FAD5D86246DAE769
:10144000002C3FF4C3AED8ED0C6A86469FED477A78
:101450004FF0000C331D56F82C200EF1080E82F4CC
:101460000002A2F5000207EE902A53F82C200CF19E
:10147000020CF8EEE77A82F400026445A2F500025D
:1014800067EE877A67EEA67A4EED027A07EE902A2B
:10149000F8EEE77A67EE877A67EEA67A4EED017A84
:1014A000D9D8F9612246C847314ED8ED0D6A0020DF
:1014B000F9692B1D9FED337A9FED336ADFF8BCC0CD
:1014C0001FE0F4EEC67AF1EE10FAC0F2FC83324669
:1014D000D1ED017A45F8202066EEA77AF4EEC77ABE
:1014E000F1EE10FA18D9F4EEC67AF1EE10FAC0F265
:1014F000DA83324643F820200230083184427FF6F6
:1015000067AED1ED007A66EEA77AF4EEC77AF1EE17
:1015100010FAD6D86246DBE76246EBE762467DE723
:10152000324615E7A100D6466208073121F00701CF
:10153000ADEB010DEA46ADEB010D6946ADEB0E0DCD
:101540000AEB8200EC46ADEB0E0D01EB8202F86176
:10155000E946CCE900A0C9E9001290E68008002421
:101560000280FFFF000000300082FF7F0000003497
:1015700082FF7F0064080024007E00807E0080FFE0
:101580000000003804FF7FBF04FF7F3F00FEFF46DE
:10159000002C00F0C982BBF1020FD8F8242000F023
:1015A000FA827969C7F8049002EB810E5FED0C5A5C
:1015B0008A00DCF808100EF104007A611A46DCF8A3
:1015C0000C303B61331DD7F810903D61FD69C7E9D0
:1015D00002CB8C46834636F92210D8ED0C7A06EE03
:1015E000101A33F9221006EE901A3EF92210B8EEC6
:1015F000C66A07EE101AF8EEE66A3BF92210B8EE5A
:10160000C77A26EE256A66EEA56A27EE257A26EECB
:10161000276A66EEA76A27EE277A07EE901A510826
:101620000232F8EEE77A0AEB8100944280ED006A1C
:1016300005EB810067EEA57AC0ED006A0CEB810036
:1016400009EB810180ED007A98ED0C7A67EE877ADC
:10165000C1ED007ABFD8D7F804903D69D7E902CB35
:1016600060466208BB6949469847D8F82C307A69C9
:10167000D8ED0D6A1A441FED3D7A1FED3D6A2B1D12
:10168000904602F1040A5FED3F5A0022A84ED9E9C4
:1016900000EC51E0F4EEC67AF1EE10FAC0F2C78227
:1016A00047F6FE7045F822000CEB0100D0ED007A01
:1016B00066EEA77AF4EEC77AF1EE10FA4BD9F4EEA3
:1016C000C67AF1EE10FAC0F2BA8247F6FE70BBF1AC
:1016D000020F43F822002BD0D9F808000844D0EDBF
:1016E000007A66EEA77AF4EEC77AF1EE10FA36D9F0
:1016F000F4EEC67AF1EE10FAC0F2CD8247F6FE7033
:1017000048F82200D9F80C000144D1ED007A66EEC9
:10171000A77AF4EEC77AF1EE10FA1ED9F4EEC67A83
:10172000F1EE10FAC0F2AF8247F6FE714AF82210CD
:10173000023294427FF6B1AD51080EEB8100890070
:10174000D0ED007A66EEA77AF4EEC77AF1EE10FAE1
:10175000A0D83046A6E73046B9E73146E6E730463E
:10176000CEE7002C00F0E081BBF1020FD8F8243066
:1017700000F0E1817A69DCF8081003EB820EC7F80B
:1017800004909300DFED6B5A0EF1040000227B61A0
:10179000DCF80C303B61331DD7F810903D61FD69DA
:1017A000C7E902CB8C46834656F82210D8ED0C7A56
:1017B00007EE101A53F82210B8EEC76A07EE101A97
:1017C0005EF82210F8EEC76A07EE101A26EE256AB8
:1017D0005BF82210B8EEC77A66EEA56A26EE276A95
:1017E00027EE257A66EEA76A27EE277A07EE901A8B
:1017F00051080232F8EEE77A0AEB8100944280ED5C
:10180000006A05EB810067EEA57AC0ED006A0CEB7B
:10181000810009EB810180ED007A98ED0C7A67EE8A
:10182000877AC1ED007ABFD8D7F804903D69D7E92F
:1018300002CB60466208BB6949469847D8F82C300D
:101840007A69D8ED0D6A1A449FED3E7A9FED3E6AA3
:10185000131D9246DFF8E4C00022FB612B1D364EBB
:10186000D9E9008E4EE0F4EEC67AF1EE10FAC0F23D
:10187000FC81304645F822000EEB0100D0ED007AE5
:1018800066EEA77AF4EEC77AF1EE10FA49D9F4EED3
:10189000C67AF1EE10FAC0F2EF813046BBF1020FCA
:1018A00043F822002AD0D9F808000844D0ED007A85
:1018B00066EEA77AF4EEC77AF1EE10FA35D9F4EEB7
:1018C000C67AF1EE10FAC0F2C98130464AF8220019
:1018D000D9F80C000144D1ED007A66EEA77AF4EE57
:1018E000C77AF1EE10FA1ED9F4EEC67AF1EE10FACC
:1018F000C0F2AD813146F86940F8221002329442BC
:101900007FF6CBAC510808EB81008900D0ED007A5E
:1019100066EEA77AF4EEC77AF1EE10FAA3D8604625
:10192000A8E76046BAE76146E5E76046CEE700BF54
:101930000280FFFF000000300082FF7F007E0080F9
:101940000000003404FF7FBF04FF7F3F002C00F045
:10195000EB807A690021D8F82430C7F8109003EBA7
:10196000820ED7F81C909300FD610EF104021FED6A
:101970000C6A7B61331D154656F821204808D8EDC6
:101980000C6ABBF1020F82F40002A2F5000207EE1E
:10199000902A53F8212082F40002B8EEE77AA2F5EB
:1019A000000227EE067A07EE902A0AEB8002F8EE94
:1019B000E77A27EE267A67EE867A82ED007A09EBDF
:1019C00080024FEA800067EEA67AC2ED007A27D047
:1019D0005EF8212082F40002A2F5000207EE902AB0
:1019E00055F8212082F40002B8EEE77AA2F5000251
:1019F00027EE067A07EE902ADCF80820F8EEE77A60
:101A0000024427EE267A67EE867A82ED007A98ED18
:101A10000C7ADCF80C2067EE877A0244C2ED007A7B
:101A200002318C42A8D8D7F8109060466208BB6992
:101A30004946FD699847D8F82C307A69D8ED0D6A87
:101A40001A441FED407A1FED406A131D9246DFF8DD
:101A5000C4C20022FB612B1DAB4ED9E9008E4EE0C3
:101A6000F4EEC67AF1EE10FAC0F2C580304645F8C1
:101A700022000EEB0100D0ED007A66EEA77AF4EEBC
:101A8000C77AF1EE10FA49D9F4EEC67AF1EE10FAFF
:101A9000C0F2BF803046BBF1020F43F822002AD0CB
:101AA000D9F808000844D0ED007A66EEA77AF4EE83
:101AB000C77AF1EE10FA35D9F4EEC67AF1EE10FAE3
:101AC000C0F2AE8030464AF82200D9F80C0001443A
:101AD000D1ED007A66EEA77AF4EEC77AF1EE10FA4D
:101AE0001ED9F4EEC67AF1EE10FAC0F28B803146C0
:101AF000F86940F82210023294427FF6CEAB5108CA
:101B000008EB81008900D0ED007A66EEA77AF4EE4A
:101B1000C77AF1EE10FAA3D86046A8E76046BAE7A4
:101B20006146E5E76046CEE7224649466046BB6926
:101B30009847FFF7B2BBC7F810B0002298ED0C6AC7
:101B4000331DDFED726AD7F81CB0786956F82210A1
:101B500007EE901A53F82210B8EEE77A07EE901AC3
:101B600051080232F8EEE77A27EE267A0AEB810E68
:101B700094420BEB810167EEA67A27EE067A67EEB8
:101B8000867A8EED007AC1ED007ADFD88300D7F82F
:101B900010B07B614DE61A46C7F810B098ED0C6A9C
:101BA000331DDFED5B6AD7F81CB0786936F9221077
:101BB00007EE101A33F9221007EE901AB8EEC77A22
:101BC00051080232F8EEE77A27EE267A0AEB810E08
:101BD00094420BEB810167EEA67A27EE067A67EE58
:101BE000867A8EED007AC1ED007ADFD88300D7F8CF
:101BF00010B07B6134E5F0EE675AFEEEE45A15EE64
:101C0000900A34E7F0EE675AFEEEE45A15EE901AA9
:101C10006EE7F0EE675AFEEEE45A15EE900A3AE7E8
:101C2000F0EE675AFEEEE45A15EE900A4BE767EEC7
:101C3000A57AFDEEE77A17EE900A00B232E567EE7C
:101C4000A57AFDEEE77A17EE900A00B23FE5F0EED6
:101C5000675AFEEEE05A15EE901A4CE6F0EE675A1F
:101C6000FEEEE05A15EE900A30E6F0EE675AFEEE10
:101C7000E05A15EE900AFDE5F0EE675AFEEEE05AE6
:101C800015EE900A0AE667EEA57AFDEEE77A17EE02
:101C9000901A09B24AE567EEA57AFDEEE77A17EEEB
:101CA000900A00B22CE5F0EE675AFEEEE45A15EE0B
:101CB000902A1FE467EEA57AFDEEE77A17EE902AE8
:101CC00012B2FFF731BBF0EE675AFEEEE45A15EEA2
:101CD000902AFFF7FDBBF0EE675AFEEEE05A15EED4
:101CE000902AFFF79BBBF0EE675AFEEEE05A15EE26
:101CF000902AFFF780BB67EEA57AFDEEE77A17EE34
:101D0000902A12B2FFF724BB82FF7F000000003050
:101D1000000000387E0080FF30B5184C154685B0B5
:101D2000046004F1080EEC460FC98EE80F00D4EDF4
:101D3000047AF5EEC07A8CE80F00F1EE10FA1ADDA5
:101D4000B7EE006A94ED057A27EE277AC6EE276A89
:101D500084ED0D7AC4ED0C6A6DB1204640F8185F31
:101D600001F01AFC064903690020064A2162A262BA
:101D7000E36005B030BD012005B030BD640800242B
:101D8000002000300000003000680830704700BFBD
:101D9000B1F5807F03680A4628BF4FF48072B1F521
:101DA000807F9A6094BF002001207047006818303F
:101DB00001F052BC70B504688AB0A369E160CBB190
:101DC00004F11805284601F0E7FB8446EE46E66874
:101DD000BCE80F00AEE80F00BCE80F00AEE80F0053
:101DE0009CE803008EE8030069462846049601F04B
:101DF000DBFAF8B9E069D8B104F11C05284601F016
:101E0000CBFB8446EE46E468BCE80F00AEE80F006A
:101E1000BCE80F00AEE80F009CE803008EE803006A
:101E200069462846049401F0BFFA003818BF012023
:101E30000AB070BD01200AB070BD00BF30B50468A3
:101E400083B00D46E3694BB1A3680020E26A616A82
:101E50009B00009004F11C0001F0A0FBA368074860
:101E6000A26A9B00216A009004F1180001F096FB21
:101E70000020C4E9005003B030BD00BF5D11000870
:101E800010B4074B4FF07E5130240022032019611B
:101E90009C60D8605DF8044B5961C3E90622704725
:101EA00064080024704700BFF8B5134F3C687F2CCE
:101EB00007D98023114A42F224411C463B60A2F814
:101EC0007E100F4D2B68012B0AD90C4E0D4D22466A
:101ED0003146284600F02CF90028F8D13860F8BDCA
:101EE00022460649074800F023F90028F7D12B685D
:101EF000386001332B60F8BDA0080024A40800243A
:101F00009C0800242409002430B4154C2168F1B148
:101F10004B1E144DE81810F801298C4619460A2A60
:101F200001D00D2A02D14BB1013BF4E70CF10203C1
:101F30007F2B10D98023236030BC704701220223FD
:101F400023600D200A236854AB5430BC7047012233
:101F50000223044DF4E70CF101026146F0E700BFF3
:101F6000A0080024A408002410B5094C02460B4622
:101F7000084821680844C1F180010FF081FD236801
:101F800018442060FFF7C0FFFFF78EFF10BD00BFB1
:101F9000A0080024A40800240FB400B583B004A94D
:101FA00051F8040B0191FFF7DFFF03B05DF804EB7C
:101FB00004B0704710B5044600210A4800F032F81A
:101FC000002C094B14BF0222002208481A60FFF7B8
:101FD000E3FF0748FFF7E0FF0A20BDE8104001F0EB
:101FE00001BC00BF240900249C080024C03D010856
:101FF000D03D0108064A0749074808B50EF038FFEA
:10200000034A04490548BDE808400EF031BF00BF4F
:1020100000000024A51E000824090024280900242B
:10202000704700BF012910B506D0022915D051B163
:10203000BDE8104005F038BB0A463448344909F081
:10204000CDFCE8B1FEE7334B0A46334C3349344804
:102050001C6009F0C3FC68B1FEE701222C492B4843
:1020600009F0BCFC00B1FEE72E49284809F0D8FC75
:10207000C0B1FEE72B492A4809F0D2FC60B1FEE767
:102080002849224809F0CCFC00B1FEE726491F4848
:1020900009F054FC08B3FEE72449214809F04EFC3E
:1020A000A8B1FEE72049194809F048FC00B1FEE755
:1020B000164809F0CBFC024640B9164B164C17499E
:1020C00017481C6009F08AFC68B1FEE7FEE7144877
:1020D00009F0BCFC0028ABD0FEE70C4809F0B6FCC8
:1020E0000028A5D0FEE70F490D4809F099FC00B182
:1020F000FEE70E490A4809F021FC00B1FEE7084856
:1021000009F0A4FC002893D0FEE700BFC80B002410
:10211000A0000024640E0024212000088400002474
:102120002C09002408010024640000245400002429
:10213000084691B208B501F02BFE003818BF012007
:1021400008BD00BF014804F08DBD00BF0837002462
:10215000014804F087BD00BF08370024014804F09F
:1021600081BD00BF0837002410B592B0ADF804104F
:102170000180C9B2149C0B29C460C0E901233FD07F
:1021800090F801C0BCF10F0F3AD8022A3FD0032AC1
:1021900002D0012A00D000220E92012B02D0022B85
:1021A00018BF0023022C0F932CD0032C2AD0012C13
:1021B00028D000230A29109327D85C4A02EB8122F9
:1021C00002610A2914D8DFE801F0A39587796B5DD5
:1021D0004F4133250600564BD3F8E01041F480619F
:1021E000C3F8E010D3F8E03003F480630C930C9B49
:1021F00001230DA9104603FA0CF30D9303F072FBB3
:1022000012B010BD0A291094D7D90022D8E71122A4
:102210000E92C2E7464BD3F8E01041F40071C3F8C8
:10222000E010D3F8E03003F400730B930B9BDFE76F
:102230003F4BD3F8E01041F48071C3F8E010D3F8BD
:10224000E03003F480730A930A9BD1E7384BD3F84C
:10225000E01041F08001C3F8E010D3F8E03003F063
:1022600080030993099BC3E7314BD3F8E01041F099
:102270004001C3F8E010D3F8E03003F040030893C6
:10228000089BB5E72A4BD3F8E01041F02001C3F8D2
:10229000E010D3F8E03003F020030793079BA7E793
:1022A000234BD3F8E01041F01001C3F8E010D3F84D
:1022B000E03003F010030693069B99E71C4BD3F81C
:1022C000E01041F00801C3F8E010D3F8E03003F06B
:1022D00008030593059B8BE7154BD3F8E01041F0FD
:1022E0000401C3F8E010D3F8E03003F004030493D2
:1022F000049B7DE70E4BD3F8E01041F00201C3F8D8
:10230000E010D3F8E03003F002030393039B6FE780
:10231000074BD3F8E01041F00101C3F8E010D3F807
:10232000E03003F001030293029B61E700000258D2
:102330000044025808B5012143780069994089B2E8
:1023400003F0D8FC003818BF012008BD01230A465D
:102350004178006903FA01F189B203F0D1BC00BFF2
:102360008378022B30B504468FB037D0032B33D09F
:10237000012B31D000230A93E378012B2AD0022BC2
:1023800028D000230B93002320460C9302F0E2F8A0
:102390000546204602F0E6F823780990082B13D86A
:1023A000DFE803F01F3245586B7E91A40500594BBE
:1023B000D3F8E02042F48072C3F8E020D3F8E03094
:1023C00003F480730893089B09A9284603F08AFA4E
:1023D0000FB030BD0B93D6E70A93CDE711230A93D4
:1023E000CAE74C4B09A92846D3F8E02042F0010285
:1023F000C3F8E020D3F8E03003F001030093009B22
:1024000003F070FA0FB030BD424B09A92846D3F84B
:10241000E02042F00202C3F8E020D3F8E03003F0FD
:1024200002030193019B03F05DFA0FB030BD394BFD
:1024300009A92846D3F8E02042F00402C3F8E020BE
:10244000D3F8E03003F004030293029B03F04AFA4E
:102450000FB030BD2F4B09A92846D3F8E02042F039
:102460000802C3F8E020D3F8E03003F00803039338
:10247000039B03F037FA0FB030BD264B09A928465D
:10248000D3F8E02042F01002C3F8E020D3F8E030A7
:1024900003F010030493049B03F024FA0FB030BD43
:1024A0001C4B09A92846D3F8E02042F02002C3F8CB
:1024B000E020D3F8E03003F020030593059B03F000
:1024C00011FA0FB030BD134B09A92846D3F8E0200C
:1024D00042F04002C3F8E020D3F8E03003F04003BC
:1024E0000693069B03F0FEF90FB030BD094B09A916
:1024F0002846D3F8E02042F08002C3F8E020D3F869
:10250000E03003F080030793079B03F0EBF90FB073
:1025100030BD00BF0044025870B506460D4602F0BB
:1025200019F80446304602F01DF82A1E01462046DE
:1025300018BF0122BDE8704003F0E2BB0023122265
:1025400070B586B0CDE9022304930368032B01D84C
:1025500004230593061D841D304601F0FBFF05464C
:10256000304601F0FFFF034601A92846019303F01E
:10257000B9F9204601F0EEFF034620461C4601F063
:10258000F1FF01A903462046019303F0ABF906B021
:1025900070BD00BF634A0368934210B58CB028D069
:1025A000614A934258D0614A934200F09480604A55
:1025B000934201D00CB010BD5E4C5F48D4F8E030BF
:1025C00043F00203C4F8E030D4F8E03003F0020333
:1025D0000A930A9BFFF7B2FFD4F8F43043F080036C
:1025E000C4F8F430D4F8F43003F080030B930B9B61
:1025F000E0E7504C5148D4F8E03043F00203C4F80F
:10260000E030D4F8E03003F002030193019BFFF7C0
:1026100095FFD4F8E83000221F2043F40013114640
:10262000C4F8E830D4F8E83003F400130293029BB6
:10263000D4F8D83043F00103C4F8D830D4F8D830F7
:1026400003F001030393039B02F0D0F81F200CB0AA
:10265000BDE8104002F008B9364C3948D4F8E030F3
:1026600043F08003C4F8E030D4F8E03003F0800396
:102670000493049BD4F8E03043F00203C4F8E03044
:10268000D4F8E03003F002030593059BFFF756FFF3
:10269000D4F8E8300022212043F480031146C4F826
:1026A000E830D4F8E83003F480030693069BD4F8AE
:1026B000D83043F00103C4F8D830D4F8D83003F050
:1026C00001030793079B02F091F821200CB0BDE8AD
:1026D000104002F0C9B81B48FFF730FF154B00222D
:1026E0004820D3F8E840114644F40004C3F8E84019
:1026F000D3F8E84004F400040894089CD3F8D840C8
:1027000044F00104C3F8D840D3F8D83003F00103F3
:102710000993099B02F06AF848200CB0BDE810400C
:1027200002F0A2B80054004000580040005C004095
:10273000001C005800440258F41000246C0E0024C1
:10274000440F00241C1000242DE9F0431A4B87B0DD
:1027500000254FF010099E46EC46184BFF22E0463C
:1027600067461A700EF118060EF13004CDE90055D7
:10277000CDE90255ADF80090BCE80F00CDE9045555
:10278000AEE80F009CE803000095ADF800908EE8DD
:102790000300B8E80F000FC69CE803000095ADF8F1
:1027A000009086E803000FCF0FC49CE8030084E884
:1027B000030007B0BDE8F08304000024690E002484
:1027C00010B5EFF3108472B6084B1A78120602D5D2
:1027D00004B962B610BD1B78D82205485BB202FB73
:1027E0000300143002F02CFDF2E700BF690E002454
:1027F0006C0E0024014804F01BB900BFF80E002441
:10280000014804F015B900BFD00F0024014804F0BE
:102810000FB900BFA81000242DE9F0430F68D82499
:102820003F4D85B007FB04F4032F05EB0403036061
:1028300040DCCB680E46012B3CD84DD04FF0D80879
:10284000B646DFF8FC9008FB0758BEE80F00C44608
:10285000ACE80F00DEF800300DF1100ECCF80030BF
:10286000D8F808C099E80F000EE90F000EEB8703B7
:10287000BCF1010F53F8103CC8F88C3031D0BCF1DA
:10288000020F42D0BCF1000F35D0317C8C34D823FC
:10289000002201202C4403FB07534900C3E9260210
:1028A000C3F894102046C3E92822C3E92A2203F082
:1028B000B1FE18B1012005B0BDE8F0830146204605
:1028C00004F0C2F80028F5D10146204604F0E6F8ED
:1028D000003818BF0120EEE70B7C103B672BADD909
:1028E000E8E701F019F90F4B98420CBF0E4B0F4B64
:1028F000C8F89030C9E701F00FF90A4B98420CBFB5
:102900000B4B0C4BC8F89030BFE701F005F9054BB5
:1029100098420CBF084B094BC8F89030B5E700BF90
:102920006C0E0024000E27072D0FB0303211D0207E
:102930005F4390608A62E030200BA0101A0980107B
:10294000483D01082DE9F041D0F8008082B00D46E5
:1029500017461E4608F18C04204604F071F8202822
:10296000FAD1D8F80C3073B96D002046089C334674
:102970003A46A9B2009403F0A3FE003818BF012024
:1029800002B0BDE8F081089B32463946204603F08C
:102990006BFFF2E7044B10221A7483F8E82083F8E7
:1029A000C02183F8982270476C0E002430B50023B4
:1029B00095B04FF48071062204460B930692139350
:1029C000CDE90C13CDE90E33CDE9113301F0A6F8B2
:1029D00007282BD004F1100541F2883206A92846B9
:1029E00004F0AEFF28B10123184684F85C3015B01E
:1029F00030BD0222022306A92846CDE90023102279
:102A00000123CDE9022300224FF48003CDE9042302
:102A100005224FF0807306926A460F9341F2883385
:102A200005F0FAF80028DED115B030BD03230120EF
:102A300084F85C3015B030BD70B50023A4B04FF001
:102A400080724FF480750446ADF806300D93CDE9E1
:102A500010320122CDE90E53CDE91223CDE9143312
:102A6000002943D0F02300F1100508AEADF8063080
:102A7000C02341F2883231462846089304F060FFB3
:102A800028B10123184684F85C3024B070BD41F2AF
:102A900088320DF10601284604F0BCFF03460028E9
:102AA000EFD105224FF480711E93284616924FF005
:102AB00080721B9321931F9202AA9FED1F7BCDE989
:102AC0001C13CDE922338DED027B9FED1D7B41F27E
:102AD000883316A98DED047B9FED1B7B8DED067B66
:102AE00005F09AF80028CCD124B070BD00F1100593
:102AF00008AE612341F2883231462846089304F03B
:102B00001FFF0028BDD141F288320DF10601284691
:102B100004F0FEFF0028B4D1BDF80630204623F0B3
:102B2000780343F04003ADF80630FFF73FFF00287D
:102B30009ED0A6E7AFF30080000000000100000077
:102B40001000000001000000000000000000400034
:102B50002DE9F04F00234FF4807501264FF0807867
:102B600004462DED028BABB08DF807301393219303
:102B7000299314950E96CDF85C80CDE91533CDE9F7
:102B80001863CDE91A33CDE92253CDE92433CDE9D9
:102B9000273306231C9300F0C1FF072808D004F157
:102BA000100741F288321CA9384604F0C9FE40B132
:102BB0000123184684F85C302BB0BDEC028BBDE8D5
:102BC000F08F4FF0020A4FF0020B4FF0050941F26F
:102BD000883308AA1CA93846CDF89480CDF87090A7
:102BE0009FED2D8BCDE908AB4FF0000A4FF4800B21
:102BF0008DED0A8BCDE90CAB05F00EF80028D7D18E
:102C000041F2883238460EA904F09AFE0028CFD14E
:102C1000402341F288320DF1070138468DF8073024
:102C200004F0F8FE0028C3D141F288330EA902AAAD
:102C30003846CDF83890CDF85C809FED197B8DED4E
:102C4000048BCDE906AB8DED027B04F0E5FF034676
:102C50000028ADD1CDF870904FF00109CDF89480E7
:102C60004FF00008219308AA29931CA93846229501
:102C7000CDE92333CDE9273341F288338DED0A8B3B
:102C8000CDE90CABCDE9088904F0C6FF002893D04C
:102C9000304684F85C608FE71000000001000000FF
:102CA00040000000400000002DE9F043624CA3B05A
:102CB0000D46046000F032FF072800F0A980286864
:102CC00023466968AA6807C31E46AB8926F8043BF9
:102CD0003046257B677B04F015FEE0B9574B012D8C
:102CE0004FF00108E061236114BF4FF480134FF4EB
:102CF0000003C4E9058893FAA3F3B3FA83F34FF40E
:102D00008079013BC4F82490C4E90B00304623626B
:102D100004F08CFD38B10122134684F85C2018467B
:102D200023B0BDE8F08366230B90139041F2883204
:102D300006A90693CDE90C90CDE90E00CDE911006E
:102D4000304604F0FDFD0028E5D1992341F2883298
:102D500006A93046069304F0F3FD0028DBD10523D5
:102D60001C9019906A4614934FF08073219014A917
:102D70001D9341F288339FED2A7BCDE91A90CDE96E
:102D80001F008DED007B9FED287B30468DED027B93
:102D90009FED277B8DED047B04F03EFF0028BAD128
:102DA00029462046FFF748FE0028B4D12046FFF709
:102DB000CFFE03460028AED1002FB0D11893304685
:102DC0000027002606AA14A9CDF86890CDE91F3384
:102DD000EB2314934FF440631B934FF4005317936A
:102DE0004FF440431C93A0231693062319934FF0EE
:102DF000805321934FF04073CDE906671D9304F093
:102E000083FF034600288AD0434684F85C8086E727
:102E100001230322184684F85C2023B0BDE8F08328
:102E20000000000001000000100000000100000090
:102E30000000000000004000CC11002400500052AF
:102E40002DE9F04F8FB0414B0024026800AF9A4249
:102E50007C63C7E90944C7E90B4403D03C37BD464E
:102E6000BDE8F08F3A4B40F609213A48EB46D3F8DB
:102E7000D42007F11C0607F1220A4FF0020942F4A0
:102E800080424FF00308C3F8D420D3F8D42002F4D2
:102E90008042BA60BA68D3F8E02042F04002C3F83A
:102EA000E020D3F8E02002F04002FA60FA68D3F89C
:102EB000E02042F02002C3F8E020D3F8E02002F046
:102EC00020023A613A69D3F8E02042F01002C3F8D8
:102ED000E020D3F8E02002F010027A617A69D3F89A
:102EE000E02042F00202C3F8E020D3F8E030F861BD
:102EF00003F002033984BB61174B7B60BB697B68BD
:102F000053F8040F7B6001F025FB7B6805461868C9
:102F100001F028FB16F8013B786207F124012846EE
:102F2000C7F830807B63C7E90A9402F0DBFC5645A2
:102F3000E5D100225C20114601F058FC5C2001F034
:102F400093FC3C37DD46BD46BDE8F08F0050005293
:102F5000004402580A0A090928120024114B026889
:102F60009A4200D07047104A70B5D2F8D4300F4C56
:102F700023F4804304F11806C2F8D43054F8040F47
:102F800001F0E8FA0546206801F0ECFA014628460F
:102F900002F0E8FDB442F1D15C20BDE8704001F0E0
:102FA00071BC00BF00500052004402582812002497
:102FB000014804F035BF00BFDC110024084B1A1D86
:102FC000981D03F1080110B49C1C9A6603F10A02D3
:102FD000C3E91834C3E91B015DF8044B5A67704715
:102FE000CC11002438B5036871B9026A00F12805D4
:102FF00000F5AC74012A0CBF002140218BBB1D4B96
:103000005722C0F858310DE0426A00F1C00500F5C2
:10301000E874012A0CBF00214021EBB1164B5A2263
:10302000C0F8D03100232046C4E901214FF480527A
:103030004FF48061636262614FF48042C4E90331FE
:103040004FF48073C4E906234FF40033236201F088
:103050007FFD58B1FFBEFEE7084B5822C0F8D031C3
:10306000E0E7074B5922C0F85831DBE7C5E92044B7
:10307000A56338BD100002407000024028000240E5
:10308000580002402DE9F043821D05468BB0031D18
:1030900005F10A010830CDE9052305F10C02AB6901
:1030A000CDE907010992002B3DD0EB69B3FA83F813
:1030B0004FEA58180123022205AE0AAF4FF0060965
:1030C0000393CDE9012356F8044B2B7922789342E0
:1030D00016D02B68F3B1012B02D1F2B10A2304936D
:1030E000204601F03FFA03462046009301F032FAF1
:1030F000694602F0F7FBBE42E5D10BB0BDE8F083B4
:10310000697963789942E4D1B8F1000FF3D02B6864
:10311000002BE0D1CDF81090E2E76378022B14BFCA
:103120000A230823DBE74FF00108C3E7534A03688B
:10313000934230B505468BB055D02032934252D0E1
:103140004F4A934204D02032934201D00BB030BD9D
:103150004C4C4D48D4F8E03043F00103C4F8E03063
:10316000D4F8E03003F001030593059BD4F8E03078
:1031700043F00803C4F8E030D4F8E03003F008036B
:103180000693069BD4F8E03043F04003C4F8E030E7
:10319000D4F8E03003F040030793079BD4F8F030F5
:1031A00043F40003C4F8F030D4F8F03003F4000323
:1031B0000893089BFFF766FFD4F8D830296843F0DE
:1031C00001032F4A3048C4F8D830891AD4F8D830CF
:1031D00018BF012103F001030993099B0BB0BDE85F
:1031E0003040FFF7FFBE274C2848D4F8E03043F0CA
:1031F0000103C4F8E030D4F8E03003F00103009399
:10320000009BD4F8E03043F01003C4F8E030D4F869
:10321000E03003F010030193019BD4F8E03043F059
:103220004003C4F8E030D4F8E03003F040030293E8
:10323000029BD4F8F03043F48003C4F8F030D4F8A3
:10324000F03003F480030393039BFFF71BFFD4F8D4
:10325000D830296843F00103084A0C48C4F8D83034
:10326000891AD4F8D83018BF012103F00103049360
:10327000049B0BB0BDE83040FFF7B4BE04580140DA
:10328000045C014000440258A014002444120024AD
:10329000014801F0D5BF00BF9C130024014801F094
:1032A000CFBF00BF14140024014801F0C9BF00BF04
:1032B000F8150024014801F0C3BF00BF70160024B8
:1032C0001A4A0368934210B40BD02032934208D0BC
:1032D000174A934216D02032934213D05DF8044B24
:1032E0007047144B0022D3F85442C3F85822002CE4
:1032F000F4D0D3F84802D3E9931223465DF8044B87
:10330000520818470B4B0022D3F8B044C3F8B4243A
:10331000002CE3D0D3F8AC24D3F8A814D3F8A40439
:10332000520823465DF8044B184700BF045801407B
:10333000045C014044120024184A0368934210B40C
:103340000BD02032934208D0154A934217D0203236
:10335000934214D05DF8044B7047124BD3E9942488
:103360005208C3F85822002CF4D0D3E99201234626
:1033700001EB820100EB82005DF8044B1847094B1A
:10338000D3F8AC24D3F8B0445208C3F8B424002CCA
:10339000E0D0D3F8A814D3F8A404E8E70458014017
:1033A000045C0140441200242DE9F04F0C684FF4F6
:1033B0001776754F87B004FB06F6012C07EB060A5B
:1033C000C0F800A000F3A0800D468E464FF0000824
:1033D000D44669A3D3E9002369A1D1E90001CDE96D
:1033E000022306ABCAF8508203EB8403CDE9040143
:1033F00053F810BC53F8083CCAE992880193BEE820
:103400000F00ACE80F00BEE80F00ACE80F00019B16
:103410009EE80300CAF828B0CAF8C0308CE8030060
:103420002B69042B0CD8DFE803F0737D8791030030
:103430004FF41773554A03FB04739A64C3F8E020F2
:10344000AA692B6A002A43D0002B4FF4177308BFD8
:10345000022203FB047318BF0322DA6201221A63FB
:10346000EA696B6A002A40D1191E4FF4177318BF1E
:10347000012103FB0473C3E931126B69022B05D8E8
:10348000434A12F80380434A52F823904FF41773CB
:1034900006F128004246494603FB047400233844E1
:1034A00063646363E365C4F8DC30C4F8CC30C4F80B
:1034B000F430C4E90F33C4E91533C4E93533C4E942
:1034C0003B33022306F04EFD002849D0FFBEFEE745
:1034D000191E4FF4177318BF012103FB0473C3E9CE
:1034E0000B12EA696B6A002ABED0002B4FF41773E7
:1034F00008BF022203FB047318BF0322C3F8C420D1
:103500000122C3F8C820B8E7012007B0BDE8F08F5A
:103510004FF417734FF4FA5203FB04739A64C3F821
:10352000E0208DE74FF417734FF47A5203FB0473D6
:103530009A64C3F8E02083E74FF417734FF4FA421C
:1035400003FB04739A64C3F8E02079E74FF4177320
:103550004BF6803203FB04739A64C3F8E0206FE7F4
:1035600006F1C000022342464946384406F0FAFC00
:103570000028CAD0FFBEFEE704580140045C0140A9
:1035800024580140245C01404412002400770100CB
:10359000E03D0108E43D01080068704770B504682B
:1035A00082B015460E46C4F85032C4E99212069A0B
:1035B000C4F85422A269012A26D0626A012A9AB26A
:1035C00011D0294604F1C000019206F087FD236A5C
:1035D000019A012B10D0294604F1280006F07EFD47
:1035E000002002B070BD04F1C000019206F008FE98
:1035F000236A019A012BEED1314604F1280006F02E
:10360000FFFD002002B070BD226A012A9AB211D0DB
:10361000294604F12800019206F060FD636A019AD0
:10362000012B10D0294604F1C00006F057FD002000
:1036300002B070BD04F12800019206F0E1FD636A5A
:10364000019A012BEED1314604F1C00006F0D8FDFD
:10365000002002B070BD00BF03681B69042B05D8B1
:10366000044A02EB830393ED000A70479FED020AC0
:10367000704700BFF03D010800803B470368D3F866
:1036800058027047704700BF08B501F073F8BDE8F5
:10369000084001F073B900BF064808B503680BB1D4
:1036A00002F032FB044803681BB1BDE8084003F098
:1036B000D9BA08BD18410024103B0024064808B5BB
:1036C00003680BB102F020FB044803681BB1BDE89E
:1036D000084003F0C7BA08BD18410024103B00247D
:1036E000064808B503680BB102F00EFB04480368F6
:1036F0001BB1BDE8084003F0B5BA08BD184100246D
:10370000103B0024364BDA6A520062D59A6A9A6AF4
:103710009A6A9B6A180600D500BE314B9B6A9906CF
:1037200000D500BE2E4B9B6ADA0600D500BE2C4B9E
:103730009B6A1B0700D500BE294B9B6A980700D5E2
:1037400000BE274B9B6AD90700D500BE244B9B6A5D
:103750001A0400D500BE224B9B6A9B0400D500BE14
:103760001F4B9B6AD80400D500BE1D4B9B6A1905F0
:1037700000D500BE1A4B9B6A5A0500D500BE184BF7
:103780009B6A9B0500D500BE154B9B6AD80500D5EA
:1037900000BE134B9B6A990100D500BE104B9B6A7B
:1037A000DA0100D500BE0E4B9B6A1B0300D500BE9C
:1037B0000B4B9B6A580300D500BE094B9B6A9903CB
:1037C00000D500BE064B9B6ADA0306D400BE00BEDD
:1037D000FEE7DB6A9B07FAD5F8E700BEF6E700BF15
:1037E00000ED00E000F0D8BF0A4B9B6803F178437E
:1037F000B3F5003F0BD3084B986848B1986801288F
:1038000006D09868022803D09B68032070470120E7
:10381000704700BF00ED00E0000080382DE9F04166
:10382000CEB004464C2200210AA80DF07FFB2022D6
:10383000002102A80DF07AFBBC2200211EA80DF089
:1038400075FB022003F00AFF2368012B4FF00003F1
:1038500054D0534A02250193C820D16A514B21F01C
:103860000101D162D26A02F0010201929A6942F426
:1038700040429A619B6903F440430193019B494A8A
:1038800093699B04FCD548490224002201268B6AD7
:1038900004274FF0080823F0030323438B6205231A
:1038A00016900AA818934FF4803310961794199421
:1038B0001597CDF86880CDE91B222122CDE913446C
:1038C000CDE90A2304F0B4FB00B1FEE73F22032355
:1038D000294602A8CDE9022300220823CDE90423CA
:1038E00040224023CDE9062340234FF48062CDE9F6
:1038F000082304F0CBFE0346B8B1FEE7294A0425AD
:103900000093F0209169264B41F440419161926906
:1039100002F440420092DA6A42F00102DA62DB6AA3
:1039200003F001030093009BA9E720224FF480518C
:1039300025934FF440152B9280222D931EA830938F
:10394000269135914FF48071249234920C22339455
:10395000439140F2271120921022CDF884802A97BB
:103960001F96CDE92E34CDE93B334FF48033CDE9BA
:1039700022463193002446930623CDE93E45279302
:103980004FF48063094C2C931E94CDE9281205F066
:10399000D9F800B1FEE703F087FE4EB0BDE8F08134
:1039A0000004005800480258004402580F130F0347
:1039B00070B584B0012400F08FFF4FF480764FF093
:1039C0004052194B68460025ADF800400396CDE9FA
:1039D000012300F09FFF19224FF0404368468DF805
:1039E000082001938DF80F40ADF80D608DF801406F
:1039F0008DF80A5000F08EFF02230B2268468DF8E6
:103A00000F508DF801304FF062538DF8082001936C
:103A1000ADF80D408DF80A4000F07CFF042000F066
:103A200069FF04B070BD00BF0E00010330B50D4644
:103A3000044685B0D1E9000184E8030000F06AFE85
:103A4000AB79A3B30AF0D2FBFEF77EFE09F042F891
:103A50000AF0CEF82B798BBB6B799BB1BFF34F8FFC
:103A6000BFF36F8F2A4B0022C3F85022BFF34F8F52
:103A7000BFF36F8F5A6942F400325A61BFF34F8F20
:103A8000BFF36F8F4FF0FF320023002400256946FB
:103A9000204802928DF80C30CDE9004509F03AFC3F
:103AA0001C4809F09FFC08F045FC05B030BD2046DD
:103AB000FFF7B4FE2046FFF77BFFC3E7144C00235B
:103AC000C4F88430BFF34F8FD4F8801043F6E07E03
:103AD000C1F34E3CC1F3C9014FEA4C1C0CEA0E0085
:103AE0000B4640EA8372013BC4F860225A1CF8D1AD
:103AF000ACF1200C1CF1200FF0D1BFF34F8F6369A4
:103B000043F480336361BFF34F8FBFF36F8FA3E73D
:103B100000ED00E0FC16002404F0E8BE1C4B9B689E
:103B200003F17842B2F5003F25D3B3F5803F20D3AF
:103B300003F16042B2F5003F1FD303F15C42B2F5DE
:103B4000002F1CD303F17042B2F5902F19D303F16B
:103B50004842B2F5803F16D303F18042B2F1806F44
:103B600013D303F1E043B3F5000F2CBF0820072067
:103B700070470120704700207047022070470320E3
:103B8000704704207047052070470620704700BF2B
:103B900000ED00E003480023034A044903600DF0F0
:103BA00067B900BFFC160024000000248536000819
:103BB00010B4204C0022204B83B0D4F888101F484A
:103BC00041F47001C4F8881019681D4C41F00101DE
:103BD00019601A61196808401A4918609A61DA6117
:103BE0001A629A62DA621A635A639A63DA631A642F
:103BF0005A64186820F4802018601A66D3F8DC2014
:103C000042F06042C3F8DC20D3F8DC300193019B22
:103C100023681940B1F1005F03D20B4B0122C3F8B6
:103C20000821044B4FF000629A6003B05DF8044B2A
:103C3000704700BF00ED00E0004402587FEDF6EA57
:103C40000010005C0000FFFF00800051704700BFC3
:103C50000020704770B50446074E0D463046214699
:103C600007F07EFE304607F09DFE044B20462946B5
:103C70001B689847002070BD2C09002400370024E1
:103C800070B50446074E0D463046214607F068FEE3
:103C9000304607F087FE044B204629461B689847AC
:103CA000002070BDC80B00240437002400220949FD
:103CB000094808B507F04AFE0849074807F050FED2
:103CC000074B1A680AB1002008BD064A00201A6096
:103CD00008BD00BF002700242C0900240017002481
:103CE000003700244D3C000800220949094808B566
:103CF00007F02CFE0849074807F032FE074B1A6808
:103D00000AB1002008BD064A00201A6008BD00BFA5
:103D1000002F0024C80B0024001F002404370024B7
:103D20004D3C000820280AD0212806D1094B1868EC
:103D30009A889B7908608A808B7100207047054BB8
:103D40000868B1F804C08A7918600020A3F804C09C
:103D50009A7170477400002420280AD0212806D1C7
:103D6000094B18689A889B7908608A808B710020BB
:103D70007047054B0868B1F804C08A7918600020C4
:103D8000A3F804C09A7170477C000024002070479B
:103D900010B5094CD4F89032D3F814320BB101208D
:103DA00010BD0A460146204607F0D0FD2046BDE87A
:103DB000104007F0DDBD00BF2C0900244B4A03680A
:103DC00030B593428BB04FF00004CDE90444CDE907
:103DD0000644089404D0464A934249D00BB030BD03
:103DE000444D4FF4C0524448D5F8E03043F001034D
:103DF000C5F8E030D5F8E03003F00103009302236A
:103E0000009904A9CDE904230A23089301F06AFD6F
:103E10004FF40072002304A937480694CDE9042327
:103E200001F060FDD5F8D8302246214643F000630A
:103E30006220C5F8D830D5F8D83003F0006301937C
:103E4000019B00F0D3FC622000F00EFD22462146CB
:103E5000632000F0CBFC632000F006FD22462146E3
:103E6000652000F0C3FC652000F0FEFC0BB030BD07
:103E7000204D4FF4404204A9D5F8E03043F002034E
:103E8000C5F8E030D5F8E03003F0020302930223D6
:103E900002981A48CDE904230C23089301F022FD6F
:103EA000D5F8D830224621464A2043F00073C5F8A1
:103EB000D830D5F8D83003F000730393039B00F09B
:103EC00095FC4A2000F0D0FC224621464B2000F011
:103ED0008DFC4B2000F0C8FC224621464D2000F00E
:103EE00085FC4D2000F0C0FC0BB030BD0000084048
:103EF0000000044000440258000002580004025828
:103F000000F57171D0F8040407F0B8BDC1EBC1032E
:103F100000EB8303D0F80404D3F8082207F0DCBDDB
:103F2000C1EBC10300EB8303D0F804049A6C07F0E3
:103F300011BE00BFD0F8040407F0B0BEC16810B5D0
:103F4000044619B1022900D0FEE70121D4F8040487
:103F500007F08EFED4F80404BDE8104007F060BE00
:103F600010B50446D0F8040407F086FE2268D2F8A3
:103F7000003E43F00103C2F8003E236A23B1034A26
:103F8000136943F00603136110BD00BF00ED00E0AC
:103F9000D0F8040407F07ABED0F8040407F08EBE0F
:103FA000D0F8040407F088BED0F8040407F088BEF7
:103FB000D0F8040407F086BE70B5067804461EB13A
:103FC000012E30D0002070BD304D0923304AC5F895
:103FD0000404C0F8985228462E612E63C5E90023D8
:103FE00002230222EB600023C5E9062300220023FE
:103FF000C5E9082301220123C5E90A2302F07AFD5D
:1040000000B1FEE78021284603F008FB314640223C
:10401000284603F0D9FA80220121284603F0D4FA79
:104020002678012ECED11B4D09221B4B00216A6040
:1040300002222B600223C5F804442846EB600023CB
:10404000C4F898522961C5E9062300220023C5E976
:104050000823C5E90C2301220023C5E90A2302F045
:1040600049FD044600B1FEE74FF40071284603F015
:10407000D5FA21468022284603F0A6FA4FF4BA72F8
:104080003146284603F0A0FA9CE700BF0837002419
:1040900000000840103B002400000440D0F89802C3
:1040A00008B502F0BDFD032802D8024B185C08BD1C
:1040B000022008BD143E01089446D0F898021A4622
:1040C00008B5634603F032F9032802D8024B185CA6
:1040D00008BD022008BD00BF143E0108D0F89802B8
:1040E00008B503F061F9032802D8024B185C08BD3B
:1040F000022008BD143E0108D0F8980208B503F06C
:10410000E3F9032802D8024B185C08BD022008BD61
:10411000143E0108D0F8980208B503F019FA0328F4
:1041200002D8024B185C08BD022008BD143E0108ED
:104130000A06D0F8983206D4C1EBC10103EB810125
:1041400091F8FE01704701F07F01C1EBC10103EB63
:10415000810191F83E007047D0F8980208B503F04D
:10416000CFF8032802D8024B185C08BD022008BD16
:10417000143E0108D0F8980208B503F07DF9032831
:1041800002D8024B185C08BD022008BD143E01088D
:10419000D0F8980208B503F03DF9032802D8024B85
:1041A000185C08BD022008BD143E0108D0F8980232
:1041B00003F058B9122301480B807047D000002447
:1041C000122301480B807047BC00002404230148DF
:1041D0000B807047E400002410B5044C0A460448E4
:1041E000214607F0EFFF204610BD00BF183F002416
:1041F000183E010810B5044C0A460448214607F051
:10420000E1FF204610BD00BF183F0024283E0108F2
:1042100010B5044C0A460448214607F0D3FF204657
:1042200010BD00BF183F00243C3E010810B5044CEF
:104230000A460448214607F0C5FF204610BD00BFCE
:10424000183F0024483E010810B5044C0A460448B3
:10425000214607F0B7FF204610BD00BF183F0024DD
:10426000583E0108042301480B807047E4000024F5
:1042700010B5044C0A460448214607F0A3FF204627
:1042800010BD00BF183F0024183E0108464A4FF0F9
:104290001A0CD2F80008D2F80838A1F800C0C318E8
:1042A00001D142487047180FB3F1204FD2F80418DB
:1042B0004FF0000C3D4A2CBF3730303082F803C03D
:1042C0004FF0000C9070C3F3036082F805C04FF00C
:1042D000000C092882F807C04FF0000C8CBF373063
:1042E000303082F809C04FF0000C1071C3F3035056
:1042F00082F80BC04FF0000C092882F80DC08CBF6B
:10430000373030309071C3F3034009288CBF373009
:1043100030301072C3F3033009288CBF373030308F
:104320009072C3F3032009288CBF373030301073EC
:10433000C3F3031003F00F0309288CBF373030306C
:10434000092B90734FF0000094BF30333733B1F135
:10435000204FD07313744FEA11734FF000002CBF3D
:1043600037333033507400209374C1F30363D07437
:104370000020092B50754FF000008CBF37333033CD
:10438000D0751375C1F303530848092B8CBF37331D
:1043900030339375C1F30343092B94BF3033373364
:1043A000137600235376704700E0F11FE8000024E5
:1043B000464A4FF01A0CD2F80008D2F80838A1F893
:1043C00000C0C31801D142487047180FB3F1204F05
:1043D000D2F804184FF0000C3D4A2CBF3730303073
:1043E00082F803C04FF0000C9070C3F3036082F8B2
:1043F00005C04FF0000C092882F807C04FF0000CF0
:104400008CBF3730303082F809C04FF0000C10718B
:10441000C3F3035082F80BC04FF0000C092882F858
:104420000DC08CBF373030309071C3F30340092882
:104430008CBF373030301072C3F3033009288CBF83
:10444000373030309072C3F3032009288CBF3730E7
:1044500030301073C3F3031003F00F0309288CBF2F
:1044600037303030092B90734FF0000094BF303359
:104470003733B1F1204FD07313744FEA11734FF0FB
:1044800000002CBF37333033507400209374C1F3D5
:104490000363D0740020092B50754FF000008CBFCF
:1044A00037333033D0751375C1F303530848092BE4
:1044B0008CBF373330339375C1F30343092B94BF5B
:1044C00030333733137600235376704700E0F11F03
:1044D000E800002410B5044C0A460448214607F0C1
:1044E00071FE204610BD00BF183F0024483E010861
:1044F00010B5044C0A460448214607F063FE2046E6
:1045000010BD00BF183F00243C3E0108D0F8C00297
:1045100007F0CABED0F8C00207F0DEBED0F8C00275
:1045200007F0E6BE704700BFD0F8C00207F0CCBE6F
:10453000D0F8C00207F0CCBED0F8D00308B501F027
:10454000A3FF032802D8024B185C08BD022008BD57
:104550006C3E0108024B027853F82200704700BFFE
:10456000903E0108024B427833F81200704700BFBA
:10457000703E01088CB00A2814D8DFE800F015233B
:10458000313F4D5B6977859306004D4BD3F8E020B2
:1045900042F48062C3F8E020D3F8E03003F4806393
:1045A0000B930B9B0CB07047454BD3F8E02042F0C7
:1045B0000102C3F8E020D3F8E03003F001030193D7
:1045C000019BEFE73E4BD3F8E02042F00202C3F834
:1045D000E020D3F8E03003F002030293029BE1E70E
:1045E000374BD3F8E02042F00402C3F8E020D3F8C0
:1045F000E03003F004030393039BD3E7304BD3F87D
:10460000E02042F00802C3F8E020D3F8E03003F0E5
:1046100008030493049BC5E7294BD3F8E02042F03C
:104620001002C3F8E020D3F8E03003F01003059344
:10463000059BB7E7224BD3F8E02042F02002C3F8F5
:10464000E020D3F8E03003F020030693069BA9E7AF
:104650001B4BD3F8E02042F04002C3F8E020D3F82F
:10466000E03003F040030793079B9BE7144BD3F81C
:10467000E02042F08002C3F8E020D3F8E03003F0FD
:1046800080030893089B8DE70D4BD3F8E02042F49C
:104690008072C3F8E020D3F8E03003F4807309930C
:1046A000099B7FE7064BD3F8E02042F40072C3F881
:1046B000E020D3F8E03003F400730A930A9B71E71B
:1046C00000440258704700BF0F4B1B780BB9012004
:1046D000704710B504464FF47A700C4AB0FBF3F300
:1046E0001068B0FBF3F000F0E1F80F2C00D808B12F
:1046F000012010BD002221464FF0FF3000F076F877
:10470000034B00201C6010BD020100244C0000245B
:104710000401002438B50320124D00F055F8124C66
:1047200003F014FF114A12499369C3F30323CB5CCE
:1047300003F01F0320FA03F30E202B60926902F0AE
:104740000F028A5C02F01F02D3402360FFF7BCFF18
:1047500010B10124204638BD0446FFF7B3FF2046C0
:1047600038BD00BF4C000024500000240044025813
:10477000043E0108034A044B11681B780B44136084
:10478000704700BFDC43002402010024014B18687D
:10479000704700BFDC43002438B50446FFF7F6FF3E
:1047A0000546631C02D0044B1B781C44FFF7EEFF48
:1047B000431BA342FAD338BD02010024014B186801
:1047C000000C70470010005C06494FF6FF0C000219
:1047D000054BCA6800F4E06002EA0C021043034390
:1047E000CB60704700ED00E00000FA051B4BDB6872
:1047F000C3F3022300B5C3F1070E03F1040CBEF1AD
:10480000040F28BF4FF0040EBCF1060F1AD9033B6A
:104810004FF0FF3C0CFA03FC22EA0C024FF0FF3C85
:1048200000280CFA0EFC21EA0C0101FA03F141EA1E
:1048300002010ADB09010A4BC9B2034483F80013E1
:104840005DF804FB00221346E8E700F00F000901C1
:10485000044BC9B2034419765DF804FB00ED00E097
:1048600000E100E0FCEC00E0002807DB00F01F01A5
:1048700001234009024A8B4042F82030704700BFB4
:1048800000E100E000280DDB4309012200F01F00D9
:104890000549203302FA00F041F82300BFF34F8F9F
:1048A000BFF36F8F704700BF00E100E0431EB3F11C
:1048B000807F0CD24FF0E022002006494FF0F00C30
:1048C0005361072381F823C0906113617047012071
:1048D000704700BF00ED00E0BFF35F8F044B002185
:1048E0005A6A22F480325A62C3F89410704700BFAB
:1048F00000ED00E0064B40F00100C3F894005A6A56
:1049000042F480325A62BFF34F8FBFF36F8F70470C
:1049100000ED00E0174A4378C2F89830017821B3DF
:10492000436800B5C2F89C30C37A90F80CC01B06EF
:1049300090F80FE043EA0C7390F80AC00B43817BB8
:1049400043EACC4390F80DC043EA8C4390F809C089
:1049500043EA4143017A43EA0E4343EA0C2343EA24
:104960004103C2F8A0305DF804FBC2F89C10C2F805
:10497000A010704700ED00E0704700BF08B5FFF7DA
:10498000FBFF08BD0268344B344930B4344D354C1C
:10499000AA4218BF9A420CBF012300238A4208BFD3
:1049A00043F001033031A24208BF43F00103303429
:1049B0008A4208BF43F001033031A24208BF43F0EE
:1049C000010330348A4208BF43F0010301F55C71F2
:1049D000A24208BF43F0010304F55C748A4208BF99
:1049E00043F001033031A24208BF43F001033034E9
:1049F0008A4208BF43F001033031A24208BF43F0AE
:104A0000010330348A4208BF43F001033031A2422F
:104A100008BF43F001038A4208BF43F0010313B902
:104A2000114B9A4213D1D3B21049114C103BA1FB48
:104A300003515F2B0F4BC1F3021103EA0203615CC8
:104A400088BF0433C1658365184630BC704722F0C7
:104A5000FF038365F8E700BF1000024040000240FA
:104A60002800024058000240B8040240ABAAAAAA9B
:104A7000C03E010800FCFFFF0368294A294930B401
:104A8000294D2A4CAB4218BF93420CBF0122002291
:104A90008B4208BF42F001022831A34208BF42F016
:104AA000010228348B4208BF42F001022831A342A0
:104AB00008BF42F001028B4208BF42F0010212B966
:104AC0001B4A934213D1DBB21A4C1B4A0121083B0B
:104AD0001A4DA4FB0343456602EB1312C3F3041300
:104AE000920001FA03F30266836630BC7047DAB2C3
:104AF0001349144C1944103AA829A4FB02234FEA85
:104B0000131300D80833104A03F01F0501210F4C7E
:104B10001A44A9404466920081660266E5E700BF38
:104B200008540258305402581C5402584454025835
:104B300094540258CDCCCCCC009600168058025824
:104B4000F0FBFDBFABAAAAAA0082001080080240B9
:104B500070B50446FFF71AFE002C00F0C6802368EB
:104B60000546954A934248D01832934245D0303298
:104B700092498B4218BF934201F130010CBF0122D0
:104B800000228B4208BF42F0010218318B4208BF5D
:104B900042F0010218318B4208BF42F00102183185
:104BA0008B4208BF42F0010201F556718B4208BFEB
:104BB00042F0010218318B4208BF42F00102183165
:104BC0008B4208BF42F0010218318B4208BF42F00D
:104BD000010218318B4208BF42F0010218318B42AA
:104BE00008BF42F0010218318B4208BF42F00102B7
:104BF0001AB9734A934240F0F5800222002184F8EA
:104C0000352084F834101A6822F001021A6005E099
:104C1000FFF7BCFD431B052B40D823681A68D1075A
:104C2000F6D4D4E9022521692A43A0691D680A4304
:104C300061690A43E16902430A4362492940256ADE
:104C40002A430A43616A04292FD01A605A6922F064
:104C50000702114359612046FFF794FEE26D3F239E
:104C600002F01F02934083602046FFF705FFA36810
:104C7000802B3CD06368A06EDAB2013BD4E91851B6
:104C8000072B2A60486026D90023C4E91B336367D9
:104C900000200123606584F8353070BD2022032395
:104CA0000120626584F8353070BDD4E90B51294389
:104CB0000A431A605969A26A21F00701114341F0C1
:104CC0000401002DC6D000284FD1012A6ED032F049
:104CD0000202BFD151E0501E072810D9626FD4E9FB
:104CE0001B31002018604A60D2E7012070BD00230C
:104CF000A16ED4E91802636003605160C4E72168C3
:104D0000314B324DA94218BF994205F114050CBF31
:104D100001230023A94208BF43F001031435A9422F
:104D200008BF43F001031435A94208BF43F0010353
:104D30001435A94208BF43F001031435A94208BF46
:104D400043F001033BB9224B994204D0214B224945
:104D500013449B0003E0214B214913449B00012293
:104D60008240C4E91B316267BBE7B0F5005F0ED03B
:104D7000022A05D9032A7FF46DAFEA017FF56AAFF5
:104D8000012340221846626584F8353070BD032A3D
:104D90003FF660AF01A050F822F000BF814D00083F
:104DA0007B4D0008814D0008AD4D0008B5F1C07F76
:104DB0007FF450AFE4E700BF100002404000024023
:104DC000B80402403F8010FE085402581C54025898
:104DD000945402583F820010400902403F9600164A
:104DE00040590258324A33483349834218BF9342EC
:104DF00000F128000CBF012200228B4208BF42F0C4
:104E000001022831834208BF42F0010228308B4260
:104E100008BF42F001022831834208BF42F001027C
:104E20008B4208BF42F0010212B9244A934238D1A2
:104E300002220021224D84F8341084F835201A68AB
:104E40001540A268402A2AD0802A0CBF4FF4804027
:104E50000846266AD4E90312D20842EAD1026169FF
:104E600042EAD102A16942EAD102E16942EAD102F1
:104E7000144942EA161219442A4302431248A0FB7D
:104E8000010120461A600B099B00E365FFF77AFDDC
:104E9000E26D012302F01F0293404360E4E610201C
:104EA000D7E7402203230120626584F8353070BDC6
:104EB000085402581C540258305402589454025852
:104EC0000F00FEFFF8ABFDA7CDCCCCCC002800F046
:104ED000BC80844690F83400012800F0B88001209E
:104EE0002DE9F0419CF835408CF83400844208D01C
:104EF00000224FF400638CF83420CCF85430BDE825
:104F0000F0810220DCF800507A4C8CF8350000204B
:104F1000794ECCF854007948854218BFA54200F17B
:104F200018000CBF01240024854208BF44F001048E
:104F30001830854208BF44F001041830854208BF8C
:104F400044F001041830854208BF44F0010400F524
:104F50005670854208BF44F001041830854208BFEE
:104F600044F001041830854208BF44F001041830B1
:104F7000854208BF44F001041830854208BF44F060
:104F800001041830854208BF44F0010418308542FE
:104F900008BF44F001041830854208BF44F0010402
:104FA000A0F59560B54218BF8542DCF86C600CBF77
:104FB0000120002054EA0008286820F00100286041
:104FC000DCF86400DCF86840DCF85870446040D0DD
:104FD00016B1DCE91C044460DCF85C004FF03F0EC5
:104FE00000F01F000EFA00F0B860286820F480205E
:104FF00028606B60DCF80830402B23D0A960EA60A1
:105000002B6823F01E0343F016032B60DCF84030BE
:105010001BB12B6843F008032B60DCF860301A6882
:10502000D20303D51A6842F480721A601EB1336845
:1050300043F4807333602B68002043F001032B603E
:10504000BDE8F081AA60E960DAE70120704702203C
:10505000704716B1DCE91C0444602948DFF8A8E079
:10506000754518BF85420EF1140E0CBF01200020BB
:10507000754508BF40F001000EF1140E754508BFDC
:1050800040F001000EF1140E754508BF40F001001C
:105090000EF1140E754508BF40F001000EF1140E1C
:1050A000754508BF40F0010010B9164885420ED181
:1050B000DCF85C0000F01F0E012000FA0EF07860B2
:1050C0006B60DCF80830402B10D0A960EA602B68D8
:1050D00023F00E0343F00A032B60DCF84030002B72
:1050E0009BD02B6843F004032B6096E7AA60E9602D
:1050F000EDE700BF40000240280002405800024097
:1051000008540258945402581C54025800285FD086
:1051100038B590F835200346022A55D10168444A33
:10512000914248D01832914245D03032414C4248E9
:10513000A14218BF914204F148040CBF0122002291
:10514000814208BF42F001023030A14208BF42F064
:1051500001023034814208BF42F0010200F55C7068
:10516000A14208BF42F0010204F55C74814208BF0D
:1051700042F001023030A14208BF42F00102303457
:10518000814208BF42F001023030A14208BF42F024
:1051900001023034814208BF42F001023030A142A6
:1051A00008BF42F00102814208BF42F0010212B979
:1051B000224A91420ED10422002083F835200B6848
:1051C00023F001030B6038BD802201205A6538BDF1
:1051D000012070470A681C6E22F00E02D86D9D6D8A
:1051E0000A6000F01F000A6822F001020A60012232
:1051F0002168824021F4807121606A60DA6ED3E90F
:105200001910486032B11168D3E91C0421F480718F
:1052100011604460002401211A6D83F8344083F842
:1052200035101AB118469047204638BD104638BD93
:10523000100002404000024070000240B8040240EA
:105240002DE9F04300229C4B83B09C4E1D688146A3
:10525000019203689A4A846D934218BFB34227684B
:1052600008BF0126216818BF002645D0183295488E
:10527000834218BF934200F118000CBF01220022A4
:10528000834208BF42F001021830834208BF42F057
:1052900001021830834208BF42F0010218308342F5
:1052A00008BF42F0010200F55670834208BF42F089
:1052B00001021830834208BF42F0010218308342D5
:1052C00008BF42F001021830834208BF42F00102D9
:1052D0001830834208BF42F001021830834208BFF1
:1052E00042F001021830834208BF42F001021AB9AD
:1052F000754A934240F05082D9F85C10082201F0C0
:105300001F0C02FA0CF2174240F0888127FA0CF2C7
:10531000D2070CD55A69100609D5012202FA0CF2FF
:10532000A260D9F8542042F00202C9F854204FF08C
:10533000040E0EFA0CF038425BD0002E4FD1634AB7
:10534000DFF88081434518BF934208F118080CBF6D
:1053500001220022434508BF42F0010208F118086B
:10536000434508BF42F0010208F11808434508BF51
:1053700042F0010208F11808434508BF42F001025B
:1053800008F55678434508BF42F0010208F11808B5
:10539000434508BF42F0010208F11808434508BF21
:1053A00042F0010208F11808434508BF42F001022B
:1053B00008F11808434508BF42F0010208F1180837
:1053C000434508BF42F0010208F11808434508BFF1
:1053D00042F001021AB93C4A934240F019821A681D
:1053E000920706D5A060D9F8542042F00402C9F80B
:1053F0005420102202FA0CFC1CEA070F6CD0002E7D
:1054000045D1324A2F4EB34218BF934206F11806D7
:105410000CBF01220022B34208BF42F0010218363D
:10542000B34208BF42F001021836B34208BF42F04F
:1054300001021836B34208BF42F0010206F5567663
:10544000B34208BF42F001021836B34208BF42F02F
:1054500001021836B34208BF42F001021836B342C7
:1054600008BF42F001021836B34208BF42F0010201
:105470001836B34208BF42F001021836B34208BFE3
:1054800042F001021AB9104A934240F0C9811A68E9
:10549000100721D5C4F808C01A68560300F14C81E2
:1054A0001A68D20503D41A6822F008021A60D9F8E3
:1054B00040308BB10CE000BF4C00002410000240D3
:1054C0002800024058000240B80402404000024058
:1054D00048469847D9F85C1001F01F0120268E40FD
:1054E0003E4268D0D9F80020A54BA64FBA4218BF5B
:1054F0009A4207F118070CBF01230023BA4208BFE4
:1055000043F001031837BA4208BF43F001031837CC
:10551000BA4208BF43F001031837BA4208BF43F04C
:1055200001031837BA4208BF43F001031837BA42E3
:1055300008BF43F0010307F55677BA4208BF43F0AE
:1055400001031837BA4208BF43F001031837BA42C3
:1055500008BF43F001031837BA4208BF43F0010304
:105560001837BA4208BF43F001031837BA4208BFE0
:1055700043F001031837BA4208BF43F001031BB9D7
:10558000814B9A4240F062811368DB0613D5A66016
:1055900099F83530042B136800F0AE8013F4802F97
:1055A000136800F0D3801C0340F1DE80D9F83C3052
:1055B0000BB148469847D9F85430002B00F0B98019
:1055C000D9F85430D8071FD5D9F80020042189F81C
:1055D0003510136823F0010313606C4BA3FB0535F2
:1055E000AD0A02E01368D90704D5019B0133AB4231
:1055F0000193F7D9002389F834301368DB074CBFD7
:105600000323012389F83530D9F84C30002B00F002
:105610009080484603B0BDE8F0431847186840073B
:105620000AD5186820F004001860A260D9F8542048
:1056300042F00102C9F8542027FA0CF2D2077FF594
:1056400076AE534A5348834218BF934200F130006C
:105650000CBF01220022834208BF42F00102183031
:10566000834208BF42F001021830834208BF42F073
:1056700001021830834208BF42F0010200F5567063
:10568000834208BF42F001021830834208BF42F053
:1056900001021830834208BF42F0010218308342F1
:1056A00008BF42F001021830834208BF42F00102F5
:1056B0001830834208BF42F001021830834208BF0D
:1056C00042F001021830834208BF42F00102002A72
:1056D0007FF420AE002E7FF41DAE1A68042202FA79
:1056E0000CF23A4240F09480102202FA0CFC17EAC5
:1056F0000C0F3FF4F1AE84E623F0160313605369F8
:1057000023F080035361D9F840309BB3136823F032
:10571000080313603F230025012203FA01F1D9F8A1
:105720005030A16089F8345089F83520002B7FF47F
:1057300070AF03B0BDE8F0831B6818037FF5B7AE08
:10574000D9F84830002B7FF4C3AEC5E613F480735C
:105750007FF42CAF116821F010011160012289F84B
:10576000343089F8352021E7D9F84430002B7FF414
:1057700020AF20E7D9F84830002BC7D1CAE700BFD7
:105780001000024028000240B8040240B5814E1BC0
:1057900058000240400002404E4A4F4DAB4218BFF5
:1057A000934205F114050CBF01220022AB4208BF51
:1057B00042F001021435AB4208BF42F00102143539
:1057C000AB4208BF42F001021435AB4208BF42F0C1
:1057D00001021435AB4208BF42F0010212B93F4A40
:1057E0009342A6D1D9F85C5004261A6805F01F052B
:1057F000AE400E4219D0570717D5100466604BD53E
:10580000D1034FD4D9F84830002B7FF402AF90E792
:105810001A68102202FA0CFC17EA0C0F3FF45CAE77
:105820001A6852077FF558AE34E60226AE400E42A3
:1058300011D097070FD56660140439D5D00343D42F
:10584000D9F84430002B7FF4E4AE72E713689F0769
:105850007FF5B1AE9BE60826AE400E423FF469AF3D
:1058600011077FF566AF1A68002122F00E021A6058
:105870000123D9F84C2003FA05F56560C9F85430C6
:1058800089F8341089F83530002A3FF452AF484681
:1058900003B0BDE8F0431047920603D41A6822F023
:1058A00004021A60D9F84030002B7FF4B2AE40E712
:1058B00012F0200208D11968012421F00A011960B0
:1058C00089F8342089F83540D9F83C30002B7FF432
:1058D000A0AE2EE7085402581C54025894540258A3
:1058E000406D70472DE9F04F0D6883B0002D00F03A
:1058F000D5800023DFF8688201229A4012EA050C65
:1059000000F0C7804E6826F01009B9F1020F40F090
:10591000C88003F007044FEAD30E4FF00F0A4FEA96
:10592000840900EB8E0E0AFA09FADEF8204024EA18
:105930000A0A0C6904FA09F406F0030944EA0A04A5
:10594000CEF820404FEA430E0324D0F800A009FA15
:105950000EF904FA0EF42AEA040AE44349EA0A09B1
:10596000C0F80090D0F808A0CF6804EA0A0A07FA45
:105970000EF949EA0A09C0F80890C6F30019D0F8F0
:1059800004A009FA03F92AEA020249EA0202426083
:10599000C268F70004EA02048A6802FA0EF242EAD8
:1059A0000402C26075D5644C23F0030E03F00309B2
:1059B000D4F8F420C6444FEA890942F00202C4F840
:1059C000F420D4F8F42002F002020192019A0F228E
:1059D000DEF8084002FA09F224EA0202574CA0421B
:1059E00025D004F58064A0427BD0554CA0427ED0E7
:1059F000544CA0426FD0544CA04200F08480534CD1
:105A0000A04200F08680524CA04276D0514CA04279
:105A100000F08580504CA04200F087804F4CA0429F
:105A20000CBF09240A2404FA09F942EA0902CEF853
:105A300008204FF0B0426FEA0C0EF403D2F8802039
:105A40004FF0B04454BF0EEA02024CEA0202C4F81E
:105A50008020B203D4F884404FF0B04254BF0EEA25
:105A600004044CEA0404F702C2F8844014684FF0BE
:105A7000B04254BF0EEA04044CEA04041460B402B9
:105A800052684FF0B04454BF0EEA02024CEA0202E0
:105A90006260013335FA03F27FF42EAF03B0BDE844
:105AA000F08F4FEA430E0324D0F800B006F0030A4B
:105AB00004FA0EF409F1FF390AFA0EFA2BEA040B84
:105AC000B9F1010F6FEA04044AEA0B0AC0F800A01A
:105AD0003FF65EAF46E7032404FA09F942EA0902F9
